{
  "_format": "hh3-artifact-1",
  "contractName": "LightningDEX",
  "sourceName": "contracts/LightningDEX.sol",
  "abi": [
    {
      "inputs": [
        {
          "internalType": "address",
          "name": "_usdToken",
          "type": "address"
        },
        {
          "internalType": "address",
          "name": "_oracle",
          "type": "address"
        },
        {
          "internalType": "address",
          "name": "_factory",
          "type": "address"
        }
      ],
      "stateMutability": "nonpayable",
      "type": "constructor"
    },
    {
      "inputs": [
        {
          "internalType": "address",
          "name": "owner",
          "type": "address"
        }
      ],
      "name": "OwnableInvalidOwner",
      "type": "error"
    },
    {
      "inputs": [
        {
          "internalType": "address",
          "name": "account",
          "type": "address"
        }
      ],
      "name": "OwnableUnauthorizedAccount",
      "type": "error"
    },
    {
      "anonymous": false,
      "inputs": [
        {
          "indexed": true,
          "internalType": "uint256",
          "name": "id",
          "type": "uint256"
        },
        {
          "indexed": false,
          "internalType": "string",
          "name": "symbol",
          "type": "string"
        },
        {
          "indexed": false,
          "internalType": "address",
          "name": "trader",
          "type": "address"
        },
        {
          "indexed": false,
          "internalType": "uint256",
          "name": "price",
          "type": "uint256"
        },
        {
          "indexed": false,
          "internalType": "uint256",
          "name": "amount",
          "type": "uint256"
        },
        {
          "indexed": false,
          "internalType": "bool",
          "name": "isBuy",
          "type": "bool"
        }
      ],
      "name": "OrderPlaced",
      "type": "event"
    },
    {
      "anonymous": false,
      "inputs": [
        {
          "indexed": true,
          "internalType": "address",
          "name": "previousOwner",
          "type": "address"
        },
        {
          "indexed": true,
          "internalType": "address",
          "name": "newOwner",
          "type": "address"
        }
      ],
      "name": "OwnershipTransferred",
      "type": "event"
    },
    {
      "anonymous": false,
      "inputs": [
        {
          "indexed": true,
          "internalType": "uint256",
          "name": "id",
          "type": "uint256"
        },
        {
          "indexed": false,
          "internalType": "string",
          "name": "symbol",
          "type": "string"
        },
        {
          "indexed": false,
          "internalType": "address",
          "name": "buyer",
          "type": "address"
        },
        {
          "indexed": false,
          "internalType": "address",
          "name": "seller",
          "type": "address"
        },
        {
          "indexed": false,
          "internalType": "uint256",
          "name": "price",
          "type": "uint256"
        },
        {
          "indexed": false,
          "internalType": "uint256",
          "name": "amount",
          "type": "uint256"
        }
      ],
      "name": "TradeExecuted",
      "type": "event"
    },
    {
      "anonymous": false,
      "inputs": [
        {
          "indexed": false,
          "internalType": "string",
          "name": "msg",
          "type": "string"
        },
        {
          "indexed": false,
          "internalType": "uint256",
          "name": "val",
          "type": "uint256"
        }
      ],
      "name": "debug",
      "type": "event"
    },
    {
      "inputs": [],
      "name": "FEE_BPS",
      "outputs": [
        {
          "internalType": "uint256",
          "name": "",
          "type": "uint256"
        }
      ],
      "stateMutability": "view",
      "type": "function"
    },
    {
      "inputs": [
        {
          "internalType": "string",
          "name": "",
          "type": "string"
        },
        {
          "internalType": "uint256",
          "name": "",
          "type": "uint256"
        }
      ],
      "name": "buyOrders",
      "outputs": [
        {
          "internalType": "uint256",
          "name": "id",
          "type": "uint256"
        },
        {
          "internalType": "address",
          "name": "trader",
          "type": "address"
        },
        {
          "internalType": "uint256",
          "name": "price",
          "type": "uint256"
        },
        {
          "internalType": "uint256",
          "name": "amount",
          "type": "uint256"
        },
        {
          "internalType": "bool",
          "name": "isBuy",
          "type": "bool"
        },
        {
          "internalType": "bool",
          "name": "active",
          "type": "bool"
        }
      ],
      "stateMutability": "view",
      "type": "function"
    },
    {
      "inputs": [],
      "name": "factory",
      "outputs": [
        {
          "internalType": "contract SyntheticStockFactory",
          "name": "",
          "type": "address"
        }
      ],
      "stateMutability": "view",
      "type": "function"
    },
    {
      "inputs": [],
      "name": "nextOrderId",
      "outputs": [
        {
          "internalType": "uint256",
          "name": "",
          "type": "uint256"
        }
      ],
      "stateMutability": "view",
      "type": "function"
    },
    {
      "inputs": [],
      "name": "oracle",
      "outputs": [
        {
          "internalType": "contract PriceOracle",
          "name": "",
          "type": "address"
        }
      ],
      "stateMutability": "view",
      "type": "function"
    },
    {
      "inputs": [],
      "name": "owner",
      "outputs": [
        {
          "internalType": "address",
          "name": "",
          "type": "address"
        }
      ],
      "stateMutability": "view",
      "type": "function"
    },
    {
      "inputs": [
        {
          "internalType": "string",
          "name": "symbol",
          "type": "string"
        },
        {
          "internalType": "uint256",
          "name": "amount",
          "type": "uint256"
        },
        {
          "internalType": "uint256",
          "name": "price",
          "type": "uint256"
        },
        {
          "internalType": "bool",
          "name": "isBuy",
          "type": "bool"
        }
      ],
      "name": "placeLimitOrder",
      "outputs": [],
      "stateMutability": "nonpayable",
      "type": "function"
    },
    {
      "inputs": [
        {
          "internalType": "string",
          "name": "symbol",
          "type": "string"
        },
        {
          "internalType": "uint256",
          "name": "amount",
          "type": "uint256"
        },
        {
          "internalType": "bool",
          "name": "isBuy",
          "type": "bool"
        }
      ],
      "name": "placeMarketOrder",
      "outputs": [],
      "stateMutability": "nonpayable",
      "type": "function"
    },
    {
      "inputs": [],
      "name": "renounceOwnership",
      "outputs": [],
      "stateMutability": "nonpayable",
      "type": "function"
    },
    {
      "inputs": [
        {
          "internalType": "string",
          "name": "",
          "type": "string"
        },
        {
          "internalType": "uint256",
          "name": "",
          "type": "uint256"
        }
      ],
      "name": "sellOrders",
      "outputs": [
        {
          "internalType": "uint256",
          "name": "id",
          "type": "uint256"
        },
        {
          "internalType": "address",
          "name": "trader",
          "type": "address"
        },
        {
          "internalType": "uint256",
          "name": "price",
          "type": "uint256"
        },
        {
          "internalType": "uint256",
          "name": "amount",
          "type": "uint256"
        },
        {
          "internalType": "bool",
          "name": "isBuy",
          "type": "bool"
        },
        {
          "internalType": "bool",
          "name": "active",
          "type": "bool"
        }
      ],
      "stateMutability": "view",
      "type": "function"
    },
    {
      "inputs": [
        {
          "internalType": "address",
          "name": "newOwner",
          "type": "address"
        }
      ],
      "name": "transferOwnership",
      "outputs": [],
      "stateMutability": "nonpayable",
      "type": "function"
    },
    {
      "inputs": [],
      "name": "usdToken",
      "outputs": [
        {
          "internalType": "contract IERC20",
          "name": "",
          "type": "address"
        }
      ],
      "stateMutability": "view",
      "type": "function"
    }
  ],
  "bytecode": "0x608060405234801562000010575f80fd5b5060405162002628380380620026288339818101604052810190620000369190620002ab565b335f73ffffffffffffffffffffffffffffffffffffffff168173ffffffffffffffffffffffffffffffffffffffff1603620000aa575f6040517f1e4fbdf7000000000000000000000000000000000000000000000000000000008152600401620000a1919062000315565b60405180910390fd5b620000bb816200018560201b60201c565b508260015f6101000a81548173ffffffffffffffffffffffffffffffffffffffff021916908373ffffffffffffffffffffffffffffffffffffffff1602179055508160025f6101000a81548173ffffffffffffffffffffffffffffffffffffffff021916908373ffffffffffffffffffffffffffffffffffffffff1602179055508060035f6101000a81548173ffffffffffffffffffffffffffffffffffffffff021916908373ffffffffffffffffffffffffffffffffffffffff16021790555050505062000330565b5f805f9054906101000a900473ffffffffffffffffffffffffffffffffffffffff169050815f806101000a81548173ffffffffffffffffffffffffffffffffffffffff021916908373ffffffffffffffffffffffffffffffffffffffff1602179055508173ffffffffffffffffffffffffffffffffffffffff168173ffffffffffffffffffffffffffffffffffffffff167f8be0079c531659141344cd1fd0a4f28419497f9722a3daafe3b4186f6b6457e060405160405180910390a35050565b5f80fd5b5f73ffffffffffffffffffffffffffffffffffffffff82169050919050565b5f62000275826200024a565b9050919050565b620002878162000269565b811462000292575f80fd5b50565b5f81519050620002a5816200027c565b92915050565b5f805f60608486031215620002c557620002c462000246565b5b5f620002d48682870162000295565b9350506020620002e78682870162000295565b9250506040620002fa8682870162000295565b9150509250925092565b6200030f8162000269565b82525050565b5f6020820190506200032a5f83018462000304565b92915050565b6122ea806200033e5f395ff3fe608060405234801561000f575f80fd5b50600436106100b2575f3560e01c8063944374ec1161006f578063944374ec1461016b578063b3a29540146101a0578063bf333f2c146101bc578063c45a0155146101da578063f2fde38b146101f8578063f897a22b14610214576100b2565b80632a58b330146100b6578063551714f7146100d4578063715018a6146101095780637dc0d1d014610113578063859c8acb146101315780638da5cb5b1461014d575b5f80fd5b6100be610232565b6040516100cb91906116ea565b60405180910390f35b6100ee60048036038101906100e9919061187a565b610238565b6040516101009695949392919061192d565b60405180910390f35b6101116102da565b005b61011b6102ed565b60405161012891906119e7565b60405180910390f35b61014b60048036038101906101469190611a2a565b610312565b005b6101556108e9565b6040516101629190611aaa565b60405180910390f35b6101856004803603810190610180919061187a565b610910565b6040516101979695949392919061192d565b60405180910390f35b6101ba60048036038101906101b59190611ac3565b6109b2565b005b6101c46114b0565b6040516101d191906116ea565b60405180910390f35b6101e26114b5565b6040516101ef9190611b4f565b60405180910390f35b610212600480360381019061020d9190611b92565b6114da565b005b61021c61155e565b6040516102299190611bdd565b60405180910390f35b60065481565b6004828051602081018201805184825260208301602085012081835280955050505050508181548110610269575f80fd5b905f5260205f2090600502015f9150915050805f015490806001015f9054906101000a900473ffffffffffffffffffffffffffffffffffffffff1690806002015490806003015490806004015f9054906101000a900460ff16908060040160019054906101000a900460ff16905086565b6102e2611583565b6102eb5f61160a565b565b60025f9054906101000a900473ffffffffffffffffffffffffffffffffffffffff1681565b5f60035f9054906101000a900473ffffffffffffffffffffffffffffffffffffffff1673ffffffffffffffffffffffffffffffffffffffff16638b239aa5866040518263ffffffff1660e01b815260040161036d9190611c70565b602060405180830381865afa158015610388573d5f803e3d5ffd5b505050506040513d601f19601f820116820180604052508101906103ac9190611ca4565b90505f73ffffffffffffffffffffffffffffffffffffffff168173ffffffffffffffffffffffffffffffffffffffff160361041c576040517f08c379a000000000000000000000000000000000000000000000000000000000815260040161041390611d19565b60405180910390fd5b5f841161045e576040517f08c379a000000000000000000000000000000000000000000000000000000000815260040161045590611d81565b60405180910390fd5b811561069b575f670de0b6b3a7640000848661047a9190611dcc565b6104849190611e3a565b905060015f9054906101000a900473ffffffffffffffffffffffffffffffffffffffff1673ffffffffffffffffffffffffffffffffffffffff166323b872dd3330846040518463ffffffff1660e01b81526004016104e493929190611e6a565b6020604051808303815f875af1158015610500573d5f803e3d5ffd5b505050506040513d601f19601f820116820180604052508101906105249190611eb3565b610563576040517f08c379a000000000000000000000000000000000000000000000000000000000815260040161055a90611f28565b60405180910390fd5b6004866040516105739190611f80565b90815260200160405180910390206040518060c0016040528060065481526020013373ffffffffffffffffffffffffffffffffffffffff16815260200186815260200187815260200160011515815260200160011515815250908060018154018082558091505060019003905f5260205f2090600502015f909190919091505f820151815f01556020820151816001015f6101000a81548173ffffffffffffffffffffffffffffffffffffffff021916908373ffffffffffffffffffffffffffffffffffffffff16021790555060408201518160020155606082015181600301556080820151816004015f6101000a81548160ff02191690831515021790555060a08201518160040160016101000a81548160ff021916908315150217905550505050610889565b8073ffffffffffffffffffffffffffffffffffffffff166323b872dd3330876040518463ffffffff1660e01b81526004016106d893929190611e6a565b6020604051808303815f875af11580156106f4573d5f803e3d5ffd5b505050506040513d601f19601f820116820180604052508101906107189190611eb3565b610757576040517f08c379a000000000000000000000000000000000000000000000000000000000815260040161074e90611fe0565b60405180910390fd5b6005856040516107679190611f80565b90815260200160405180910390206040518060c0016040528060065481526020013373ffffffffffffffffffffffffffffffffffffffff1681526020018581526020018681526020015f1515815260200160011515815250908060018154018082558091505060019003905f5260205f2090600502015f909190919091505f820151815f01556020820151816001015f6101000a81548173ffffffffffffffffffffffffffffffffffffffff021916908373ffffffffffffffffffffffffffffffffffffffff16021790555060408201518160020155606082015181600301556080820151816004015f6101000a81548160ff02191690831515021790555060a08201518160040160016101000a81548160ff02191690831515021790555050505b6006547fa374351db51008e19adcc84450f46a6ce3dc56d316fd3e4bd0f98940a807a52d86338688876040516108c3959493929190611ffe565b60405180910390a260065f8154809291906108dd90612056565b91905055505050505050565b5f805f9054906101000a900473ffffffffffffffffffffffffffffffffffffffff16905090565b6005828051602081018201805184825260208301602085012081835280955050505050508181548110610941575f80fd5b905f5260205f2090600502015f9150915050805f015490806001015f9054906101000a900473ffffffffffffffffffffffffffffffffffffffff1690806002015490806003015490806004015f9054906101000a900460ff16908060040160019054906101000a900460ff16905086565b5f60035f9054906101000a900473ffffffffffffffffffffffffffffffffffffffff1673ffffffffffffffffffffffffffffffffffffffff16638b239aa5856040518263ffffffff1660e01b8152600401610a0d9190611c70565b602060405180830381865afa158015610a28573d5f803e3d5ffd5b505050506040513d601f19601f82011682018060405250810190610a4c9190611ca4565b90505f73ffffffffffffffffffffffffffffffffffffffff168173ffffffffffffffffffffffffffffffffffffffff1603610abc576040517f08c379a0000000000000000000000000000000000000000000000000000000008152600401610ab390611d19565b60405180910390fd5b5f8390508215610f15575f600586604051610ad79190611f80565b908152602001604051809103902090505f5b818054905081108015610afb57505f83115b15610f0e57818181548110610b1357610b1261209d565b5b905f5260205f20906005020160040160019054906101000a900460ff1615610efb575f828281548110610b4957610b4861209d565b5b905f5260205f209060050201600301548410610b8757828281548110610b7257610b7161209d565b5b905f5260205f20906005020160030154610b89565b835b90505f838381548110610b9f57610b9e61209d565b5b905f5260205f2090600502016002015490505f670de0b6b3a76400008284610bc79190611dcc565b610bd19190611e3a565b905060015f9054906101000a900473ffffffffffffffffffffffffffffffffffffffff1673ffffffffffffffffffffffffffffffffffffffff166323b872dd33878781548110610c2457610c2361209d565b5b905f5260205f2090600502016001015f9054906101000a900473ffffffffffffffffffffffffffffffffffffffff16846040518463ffffffff1660e01b8152600401610c7293929190611e6a565b6020604051808303815f875af1158015610c8e573d5f803e3d5ffd5b505050506040513d601f19601f82011682018060405250810190610cb29190611eb3565b610cf1576040517f08c379a0000000000000000000000000000000000000000000000000000000008152600401610ce890611f28565b60405180910390fd5b8673ffffffffffffffffffffffffffffffffffffffff1663a9059cbb33856040518363ffffffff1660e01b8152600401610d2c9291906120ca565b6020604051808303815f875af1158015610d48573d5f803e3d5ffd5b505050506040513d601f19601f82011682018060405250810190610d6c9190611eb3565b610dab576040517f08c379a0000000000000000000000000000000000000000000000000000000008152600401610da290611fe0565b60405180910390fd5b82858581548110610dbf57610dbe61209d565b5b905f5260205f2090600502016003015f828254610ddc91906120f1565b925050819055505f858581548110610df757610df661209d565b5b905f5260205f2090600502016003015403610e47575f858581548110610e2057610e1f61209d565b5b905f5260205f20906005020160040160016101000a81548160ff0219169083151502179055505b8286610e5391906120f1565b9550848481548110610e6857610e6761209d565b5b905f5260205f2090600502015f01547f2f345b002ca994930b58fa92febe317950b9fea39f3643f166b218fc4ad68a7f8b33888881548110610ead57610eac61209d565b5b905f5260205f2090600502016001015f9054906101000a900473ffffffffffffffffffffffffffffffffffffffff168688604051610eef959493929190612124565b60405180910390a25050505b8080610f0690612056565b915050610ae9565b505061141a565b5f600486604051610f269190611f80565b908152602001604051809103902090508273ffffffffffffffffffffffffffffffffffffffff166323b872dd3330886040518463ffffffff1660e01b8152600401610f7393929190611e6a565b6020604051808303815f875af1158015610f8f573d5f803e3d5ffd5b505050506040513d601f19601f82011682018060405250810190610fb39190611eb3565b610ff2576040517f08c379a0000000000000000000000000000000000000000000000000000000008152600401610fe9906121c6565b60405180910390fd5b5f5b81805490508110801561100657505f83115b156114175781818154811061101e5761101d61209d565b5b905f5260205f20906005020160040160019054906101000a900460ff1615611404575f8282815481106110545761105361209d565b5b905f5260205f2090600502016003015484106110925782828154811061107d5761107c61209d565b5b905f5260205f20906005020160030154611094565b835b90505f8383815481106110aa576110a961209d565b5b905f5260205f2090600502016002015490505f670de0b6b3a764000082846110d29190611dcc565b6110dc9190611e3a565b905060015f9054906101000a900473ffffffffffffffffffffffffffffffffffffffff1673ffffffffffffffffffffffffffffffffffffffff1663a9059cbb33836040518363ffffffff1660e01b815260040161113a9291906120ca565b6020604051808303815f875af1158015611156573d5f803e3d5ffd5b505050506040513d601f19601f8201168201806040525081019061117a9190611eb3565b6111b9576040517f08c379a00000000000000000000000000000000000000000000000000000000081526004016111b09061222e565b60405180910390fd5b8673ffffffffffffffffffffffffffffffffffffffff1663a9059cbb8686815481106111e8576111e761209d565b5b905f5260205f2090600502016001015f9054906101000a900473ffffffffffffffffffffffffffffffffffffffff16856040518363ffffffff1660e01b81526004016112359291906120ca565b6020604051808303815f875af1158015611251573d5f803e3d5ffd5b505050506040513d601f19601f820116820180604052508101906112759190611eb3565b6112b4576040517f08c379a00000000000000000000000000000000000000000000000000000000081526004016112ab90612296565b60405180910390fd5b828585815481106112c8576112c761209d565b5b905f5260205f2090600502016003015f8282546112e591906120f1565b925050819055505f858581548110611300576112ff61209d565b5b905f5260205f2090600502016003015403611350575f8585815481106113295761132861209d565b5b905f5260205f20906005020160040160016101000a81548160ff0219169083151502179055505b828661135c91906120f1565b95508484815481106113715761137061209d565b5b905f5260205f2090600502015f01547f2f345b002ca994930b58fa92febe317950b9fea39f3643f166b218fc4ad68a7f8b8787815481106113b5576113b461209d565b5b905f5260205f2090600502016001015f9054906101000a900473ffffffffffffffffffffffffffffffffffffffff163386886040516113f8959493929190612124565b60405180910390a25050505b808061140f90612056565b915050610ff4565b50505b8215801561142757505f81115b156114a9578173ffffffffffffffffffffffffffffffffffffffff1663a9059cbb33836040518363ffffffff1660e01b81526004016114679291906120ca565b6020604051808303815f875af1158015611483573d5f803e3d5ffd5b505050506040513d601f19601f820116820180604052508101906114a79190611eb3565b505b5050505050565b600a81565b60035f9054906101000a900473ffffffffffffffffffffffffffffffffffffffff1681565b6114e2611583565b5f73ffffffffffffffffffffffffffffffffffffffff168173ffffffffffffffffffffffffffffffffffffffff1603611552575f6040517f1e4fbdf70000000000000000000000000000000000000000000000000000000081526004016115499190611aaa565b60405180910390fd5b61155b8161160a565b50565b60015f9054906101000a900473ffffffffffffffffffffffffffffffffffffffff1681565b61158b6116cb565b73ffffffffffffffffffffffffffffffffffffffff166115a96108e9565b73ffffffffffffffffffffffffffffffffffffffff1614611608576115cc6116cb565b6040517f118cdaa70000000000000000000000000000000000000000000000000000000081526004016115ff9190611aaa565b60405180910390fd5b565b5f805f9054906101000a900473ffffffffffffffffffffffffffffffffffffffff169050815f806101000a81548173ffffffffffffffffffffffffffffffffffffffff021916908373ffffffffffffffffffffffffffffffffffffffff1602179055508173ffffffffffffffffffffffffffffffffffffffff168173ffffffffffffffffffffffffffffffffffffffff167f8be0079c531659141344cd1fd0a4f28419497f9722a3daafe3b4186f6b6457e060405160405180910390a35050565b5f33905090565b5f819050919050565b6116e4816116d2565b82525050565b5f6020820190506116fd5f8301846116db565b92915050565b5f604051905090565b5f80fd5b5f80fd5b5f80fd5b5f80fd5b5f601f19601f8301169050919050565b7f4e487b71000000000000000000000000000000000000000000000000000000005f52604160045260245ffd5b6117628261171c565b810181811067ffffffffffffffff821117156117815761178061172c565b5b80604052505050565b5f611793611703565b905061179f8282611759565b919050565b5f67ffffffffffffffff8211156117be576117bd61172c565b5b6117c78261171c565b9050602081019050919050565b828183375f83830152505050565b5f6117f46117ef846117a4565b61178a565b9050828152602081018484840111156118105761180f611718565b5b61181b8482856117d4565b509392505050565b5f82601f83011261183757611836611714565b5b81356118478482602086016117e2565b91505092915050565b611859816116d2565b8114611863575f80fd5b50565b5f8135905061187481611850565b92915050565b5f80604083850312156118905761188f61170c565b5b5f83013567ffffffffffffffff8111156118ad576118ac611710565b5b6118b985828601611823565b92505060206118ca85828601611866565b9150509250929050565b5f73ffffffffffffffffffffffffffffffffffffffff82169050919050565b5f6118fd826118d4565b9050919050565b61190d816118f3565b82525050565b5f8115159050919050565b61192781611913565b82525050565b5f60c0820190506119405f8301896116db565b61194d6020830188611904565b61195a60408301876116db565b61196760608301866116db565b611974608083018561191e565b61198160a083018461191e565b979650505050505050565b5f819050919050565b5f6119af6119aa6119a5846118d4565b61198c565b6118d4565b9050919050565b5f6119c082611995565b9050919050565b5f6119d1826119b6565b9050919050565b6119e1816119c7565b82525050565b5f6020820190506119fa5f8301846119d8565b92915050565b611a0981611913565b8114611a13575f80fd5b50565b5f81359050611a2481611a00565b92915050565b5f805f8060808587031215611a4257611a4161170c565b5b5f85013567ffffffffffffffff811115611a5f57611a5e611710565b5b611a6b87828801611823565b9450506020611a7c87828801611866565b9350506040611a8d87828801611866565b9250506060611a9e87828801611a16565b91505092959194509250565b5f602082019050611abd5f830184611904565b92915050565b5f805f60608486031215611ada57611ad961170c565b5b5f84013567ffffffffffffffff811115611af757611af6611710565b5b611b0386828701611823565b9350506020611b1486828701611866565b9250506040611b2586828701611a16565b9150509250925092565b5f611b39826119b6565b9050919050565b611b4981611b2f565b82525050565b5f602082019050611b625f830184611b40565b92915050565b611b71816118f3565b8114611b7b575f80fd5b50565b5f81359050611b8c81611b68565b92915050565b5f60208284031215611ba757611ba661170c565b5b5f611bb484828501611b7e565b91505092915050565b5f611bc7826119b6565b9050919050565b611bd781611bbd565b82525050565b5f602082019050611bf05f830184611bce565b92915050565b5f81519050919050565b5f82825260208201905092915050565b5f5b83811015611c2d578082015181840152602081019050611c12565b5f8484015250505050565b5f611c4282611bf6565b611c4c8185611c00565b9350611c5c818560208601611c10565b611c658161171c565b840191505092915050565b5f6020820190508181035f830152611c888184611c38565b905092915050565b5f81519050611c9e81611b68565b92915050565b5f60208284031215611cb957611cb861170c565b5b5f611cc684828501611c90565b91505092915050565b7f496e76616c69642073796d626f6c0000000000000000000000000000000000005f82015250565b5f611d03600e83611c00565b9150611d0e82611ccf565b602082019050919050565b5f6020820190508181035f830152611d3081611cf7565b9050919050565b7f416d6f756e74206d757374206265203e203000000000000000000000000000005f82015250565b5f611d6b601283611c00565b9150611d7682611d37565b602082019050919050565b5f6020820190508181035f830152611d9881611d5f565b9050919050565b7f4e487b71000000000000000000000000000000000000000000000000000000005f52601160045260245ffd5b5f611dd6826116d2565b9150611de1836116d2565b9250828202611def816116d2565b91508282048414831517611e0657611e05611d9f565b5b5092915050565b7f4e487b71000000000000000000000000000000000000000000000000000000005f52601260045260245ffd5b5f611e44826116d2565b9150611e4f836116d2565b925082611e5f57611e5e611e0d565b5b828204905092915050565b5f606082019050611e7d5f830186611904565b611e8a6020830185611904565b611e9760408301846116db565b949350505050565b5f81519050611ead81611a00565b92915050565b5f60208284031215611ec857611ec761170c565b5b5f611ed584828501611e9f565b91505092915050565b7f555344207472616e73666572206661696c6564000000000000000000000000005f82015250565b5f611f12601383611c00565b9150611f1d82611ede565b602082019050919050565b5f6020820190508181035f830152611f3f81611f06565b9050919050565b5f81905092915050565b5f611f5a82611bf6565b611f648185611f46565b9350611f74818560208601611c10565b80840191505092915050565b5f611f8b8284611f50565b915081905092915050565b7f53746f636b207472616e73666572206661696c656400000000000000000000005f82015250565b5f611fca601583611c00565b9150611fd582611f96565b602082019050919050565b5f6020820190508181035f830152611ff781611fbe565b9050919050565b5f60a0820190508181035f8301526120168188611c38565b90506120256020830187611904565b61203260408301866116db565b61203f60608301856116db565b61204c608083018461191e565b9695505050505050565b5f612060826116d2565b91507fffffffffffffffffffffffffffffffffffffffffffffffffffffffffffffffff820361209257612091611d9f565b5b600182019050919050565b7f4e487b71000000000000000000000000000000000000000000000000000000005f52603260045260245ffd5b5f6040820190506120dd5f830185611904565b6120ea60208301846116db565b9392505050565b5f6120fb826116d2565b9150612106836116d2565b925082820390508181111561211e5761211d611d9f565b5b92915050565b5f60a0820190508181035f83015261213c8188611c38565b905061214b6020830187611904565b6121586040830186611904565b61216560608301856116db565b61217260808301846116db565b9695505050505050565b7f53746f636b207472616e7366657220696e206661696c656400000000000000005f82015250565b5f6121b0601883611c00565b91506121bb8261217c565b602082019050919050565b5f6020820190508181035f8301526121dd816121a4565b9050919050565b7f555344207061796f7574206661696c65640000000000000000000000000000005f82015250565b5f612218601183611c00565b9150612223826121e4565b602082019050919050565b5f6020820190508181035f8301526122458161220c565b9050919050565b7f53746f636b207061796f7574206661696c6564000000000000000000000000005f82015250565b5f612280601383611c00565b915061228b8261224c565b602082019050919050565b5f6020820190508181035f8301526122ad81612274565b905091905056fea264697066735822122062d23d3d3bd3056a4fa538cf320cf4a49a9fbbeb660660daba82305261b94b4364736f6c63430008140033",
  "linkReferences": {},
  "deployedLinkReferences": {},
  "immutableReferences": {},
  "inputSourceName": "project/contracts/LightningDEX.sol",
  "buildInfoId": "solc-0_8_20-dd0f80eddbc0a4b1866a384a6f903a8fb1f8e277"
}