{"project/contracts/PriceOracle.sol":{"PriceOracle":{"abi":[{"inputs":[],"stateMutability":"nonpayable","type":"constructor"},{"anonymous":false,"inputs":[{"indexed":true,"internalType":"string","name":"symbol","type":"string"},{"indexed":false,"internalType":"uint256","name":"newPrice","type":"uint256"}],"name":"PriceUpdated","type":"event"},{"inputs":[{"internalType":"string","name":"symbol","type":"string"}],"name":"getPrice","outputs":[{"internalType":"uint256","name":"","type":"uint256"}],"stateMutability":"view","type":"function"},{"inputs":[],"name":"owner","outputs":[{"internalType":"address","name":"","type":"address"}],"stateMutability":"view","type":"function"},{"inputs":[{"internalType":"string","name":"","type":"string"}],"name":"prices","outputs":[{"internalType":"uint256","name":"","type":"uint256"}],"stateMutability":"view","type":"function"},{"inputs":[{"internalType":"string","name":"symbol","type":"string"},{"internalType":"uint256","name":"price","type":"uint256"}],"name":"updatePrice","outputs":[],"stateMutability":"nonpayable","type":"function"}],"evm":{"bytecode":{"linkReferences":{},"object":"608060405234801562000010575f80fd5b503360015f6101000a81548173ffffffffffffffffffffffffffffffffffffffff021916908373ffffffffffffffffffffffffffffffffffffffff16021790555064037e11d6005f604051620000669062000172565b9081526020016040518091039020819055506404a817c8005f6040516200008d90620001d6565b9081526020016040518091039020819055506409502f90005f604051620000b4906200023a565b908152602001604051809103902081905550640306dc42005f604051620000db906200029e565b9081526020016040518091039020819055506406fc23ac005f604051620001029062000302565b90815260200160405180910390208190555062000318565b5f81905092915050565b7f4141504c000000000000000000000000000000000000000000000000000000005f82015250565b5f6200015a6004836200011a565b9150620001678262000124565b600482019050919050565b5f6200017e826200014c565b9150819050919050565b7f54534c41000000000000000000000000000000000000000000000000000000005f82015250565b5f620001be6004836200011a565b9150620001cb8262000188565b600482019050919050565b5f620001e282620001b0565b9150819050919050565b7f4e564441000000000000000000000000000000000000000000000000000000005f82015250565b5f620002226004836200011a565b91506200022f82620001ec565b600482019050919050565b5f620002468262000214565b9150819050919050565b7f474f4f474c0000000000000000000000000000000000000000000000000000005f82015250565b5f620002866005836200011a565b9150620002938262000250565b600582019050919050565b5f620002aa8262000278565b9150819050919050565b7f4d534654000000000000000000000000000000000000000000000000000000005f82015250565b5f620002ea6004836200011a565b9150620002f782620002b4565b600482019050919050565b5f6200030e82620002dc565b9150819050919050565b6106f980620003265f395ff3fe608060405234801561000f575f80fd5b506004361061004a575f3560e01c80634a432a461461004e578063524f38891461006a5780638da5cb5b1461009a578063c3825f4b146100b8575b5f80fd5b61006860048036038101906100639190610440565b6100e8565b005b610084600480360381019061007f919061049a565b6101ea565b60405161009191906104f0565b60405180910390f35b6100a261026f565b6040516100af9190610548565b60405180910390f35b6100d260048036038101906100cd919061049a565b610294565b6040516100df91906104f0565b60405180910390f35b60015f9054906101000a900473ffffffffffffffffffffffffffffffffffffffff1673ffffffffffffffffffffffffffffffffffffffff163373ffffffffffffffffffffffffffffffffffffffff1614610177576040517f08c379a000000000000000000000000000000000000000000000000000000000815260040161016e906105bb565b60405180910390fd5b805f836040516101879190610645565b908152602001604051809103902081905550816040516101a79190610645565b60405180910390207f159e83f4712ba2552e68be9d848e49bf6dd35c24f19564ffd523b6549450a2f4826040516101de91906104f0565b60405180910390a25050565b5f805f836040516101fb9190610645565b9081526020016040518091039020541161024a576040517f08c379a0000000000000000000000000000000000000000000000000000000008152600401610241906106a5565b60405180910390fd5b5f826040516102599190610645565b9081526020016040518091039020549050919050565b60015f9054906101000a900473ffffffffffffffffffffffffffffffffffffffff1681565b5f818051602081018201805184825260208301602085012081835280955050505050505f915090505481565b5f604051905090565b5f80fd5b5f80fd5b5f80fd5b5f80fd5b5f601f19601f8301169050919050565b7f4e487b71000000000000000000000000000000000000000000000000000000005f52604160045260245ffd5b61031f826102d9565b810181811067ffffffffffffffff8211171561033e5761033d6102e9565b5b80604052505050565b5f6103506102c0565b905061035c8282610316565b919050565b5f67ffffffffffffffff82111561037b5761037a6102e9565b5b610384826102d9565b9050602081019050919050565b828183375f83830152505050565b5f6103b16103ac84610361565b610347565b9050828152602081018484840111156103cd576103cc6102d5565b5b6103d8848285610391565b509392505050565b5f82601f8301126103f4576103f36102d1565b5b813561040484826020860161039f565b91505092915050565b5f819050919050565b61041f8161040d565b8114610429575f80fd5b50565b5f8135905061043a81610416565b92915050565b5f8060408385031215610456576104556102c9565b5b5f83013567ffffffffffffffff811115610473576104726102cd565b5b61047f858286016103e0565b92505060206104908582860161042c565b9150509250929050565b5f602082840312156104af576104ae6102c9565b5b5f82013567ffffffffffffffff8111156104cc576104cb6102cd565b5b6104d8848285016103e0565b91505092915050565b6104ea8161040d565b82525050565b5f6020820190506105035f8301846104e1565b92915050565b5f73ffffffffffffffffffffffffffffffffffffffff82169050919050565b5f61053282610509565b9050919050565b61054281610528565b82525050565b5f60208201905061055b5f830184610539565b92915050565b5f82825260208201905092915050565b7f4e6f74206f776e657200000000000000000000000000000000000000000000005f82015250565b5f6105a5600983610561565b91506105b082610571565b602082019050919050565b5f6020820190508181035f8301526105d281610599565b9050919050565b5f81519050919050565b5f81905092915050565b5f5b8381101561060a5780820151818401526020810190506105ef565b5f8484015250505050565b5f61061f826105d9565b61062981856105e3565b93506106398185602086016105ed565b80840191505092915050565b5f6106508284610615565b915081905092915050565b7f5072696365206e6f7420617661696c61626c65000000000000000000000000005f82015250565b5f61068f601383610561565b915061069a8261065b565b602082019050919050565b5f6020820190508181035f8301526106bc81610683565b905091905056fea2646970667358221220eb71b899b54a6638cbc76b8a19df87b5dbab7ccc66212c88c9ad7d7ce28b7cc664736f6c63430008140033","opcodes":"PUSH1 0x80 PUSH1 0x40 MSTORE CALLVALUE DUP1 ISZERO PUSH3 0x10 JUMPI PUSH0 DUP1 REVERT JUMPDEST POP CALLER PUSH1 0x1 PUSH0 PUSH2 0x100 EXP DUP2 SLOAD DUP2 PUSH20 0xFFFFFFFFFFFFFFFFFFFFFFFFFFFFFFFFFFFFFFFF MUL NOT AND SWAP1 DUP4 PUSH20 0xFFFFFFFFFFFFFFFFFFFFFFFFFFFFFFFFFFFFFFFF AND MUL OR SWAP1 SSTORE POP PUSH5 0x37E11D600 PUSH0 PUSH1 0x40 MLOAD PUSH3 0x66 SWAP1 PUSH3 0x172 JUMP JUMPDEST SWAP1 DUP2 MSTORE PUSH1 0x20 ADD PUSH1 0x40 MLOAD DUP1 SWAP2 SUB SWAP1 KECCAK256 DUP2 SWAP1 SSTORE POP PUSH5 0x4A817C800 PUSH0 PUSH1 0x40 MLOAD PUSH3 0x8D SWAP1 PUSH3 0x1D6 JUMP JUMPDEST SWAP1 DUP2 MSTORE PUSH1 0x20 ADD PUSH1 0x40 MLOAD DUP1 SWAP2 SUB SWAP1 KECCAK256 DUP2 SWAP1 SSTORE POP PUSH5 0x9502F9000 PUSH0 PUSH1 0x40 MLOAD PUSH3 0xB4 SWAP1 PUSH3 0x23A JUMP JUMPDEST SWAP1 DUP2 MSTORE PUSH1 0x20 ADD PUSH1 0x40 MLOAD DUP1 SWAP2 SUB SWAP1 KECCAK256 DUP2 SWAP1 SSTORE POP PUSH5 0x306DC4200 PUSH0 PUSH1 0x40 MLOAD PUSH3 0xDB SWAP1 PUSH3 0x29E JUMP JUMPDEST SWAP1 DUP2 MSTORE PUSH1 0x20 ADD PUSH1 0x40 MLOAD DUP1 SWAP2 SUB SWAP1 KECCAK256 DUP2 SWAP1 SSTORE POP PUSH5 0x6FC23AC00 PUSH0 PUSH1 0x40 MLOAD PUSH3 0x102 SWAP1 PUSH3 0x302 JUMP JUMPDEST SWAP1 DUP2 MSTORE PUSH1 0x20 ADD PUSH1 0x40 MLOAD DUP1 SWAP2 SUB SWAP1 KECCAK256 DUP2 SWAP1 SSTORE POP PUSH3 0x318 JUMP JUMPDEST PUSH0 DUP2 SWAP1 POP SWAP3 SWAP2 POP POP JUMP JUMPDEST PUSH32 0x4141504C00000000000000000000000000000000000000000000000000000000 PUSH0 DUP3 ADD MSTORE POP JUMP JUMPDEST PUSH0 PUSH3 0x15A PUSH1 0x4 DUP4 PUSH3 0x11A JUMP JUMPDEST SWAP2 POP PUSH3 0x167 DUP3 PUSH3 0x124 JUMP JUMPDEST PUSH1 0x4 DUP3 ADD SWAP1 POP SWAP2 SWAP1 POP JUMP JUMPDEST PUSH0 PUSH3 0x17E DUP3 PUSH3 0x14C JUMP JUMPDEST SWAP2 POP DUP2 SWAP1 POP SWAP2 SWAP1 POP JUMP JUMPDEST PUSH32 0x54534C4100000000000000000000000000000000000000000000000000000000 PUSH0 DUP3 ADD MSTORE POP JUMP JUMPDEST PUSH0 PUSH3 0x1BE PUSH1 0x4 DUP4 PUSH3 0x11A JUMP JUMPDEST SWAP2 POP PUSH3 0x1CB DUP3 PUSH3 0x188 JUMP JUMPDEST PUSH1 0x4 DUP3 ADD SWAP1 POP SWAP2 SWAP1 POP JUMP JUMPDEST PUSH0 PUSH3 0x1E2 DUP3 PUSH3 0x1B0 JUMP JUMPDEST SWAP2 POP DUP2 SWAP1 POP SWAP2 SWAP1 POP JUMP JUMPDEST PUSH32 0x4E56444100000000000000000000000000000000000000000000000000000000 PUSH0 DUP3 ADD MSTORE POP JUMP JUMPDEST PUSH0 PUSH3 0x222 PUSH1 0x4 DUP4 PUSH3 0x11A JUMP JUMPDEST SWAP2 POP PUSH3 0x22F DUP3 PUSH3 0x1EC JUMP JUMPDEST PUSH1 0x4 DUP3 ADD SWAP1 POP SWAP2 SWAP1 POP JUMP JUMPDEST PUSH0 PUSH3 0x246 DUP3 PUSH3 0x214 JUMP JUMPDEST SWAP2 POP DUP2 SWAP1 POP SWAP2 SWAP1 POP JUMP JUMPDEST PUSH32 0x474F4F474C000000000000000000000000000000000000000000000000000000 PUSH0 DUP3 ADD MSTORE POP JUMP JUMPDEST PUSH0 PUSH3 0x286 PUSH1 0x5 DUP4 PUSH3 0x11A JUMP JUMPDEST SWAP2 POP PUSH3 0x293 DUP3 PUSH3 0x250 JUMP JUMPDEST PUSH1 0x5 DUP3 ADD SWAP1 POP SWAP2 SWAP1 POP JUMP JUMPDEST PUSH0 PUSH3 0x2AA DUP3 PUSH3 0x278 JUMP JUMPDEST SWAP2 POP DUP2 SWAP1 POP SWAP2 SWAP1 POP JUMP JUMPDEST PUSH32 0x4D53465400000000000000000000000000000000000000000000000000000000 PUSH0 DUP3 ADD MSTORE POP JUMP JUMPDEST PUSH0 PUSH3 0x2EA PUSH1 0x4 DUP4 PUSH3 0x11A JUMP JUMPDEST SWAP2 POP PUSH3 0x2F7 DUP3 PUSH3 0x2B4 JUMP JUMPDEST PUSH1 0x4 DUP3 ADD SWAP1 POP SWAP2 SWAP1 POP JUMP JUMPDEST PUSH0 PUSH3 0x30E DUP3 PUSH3 0x2DC JUMP JUMPDEST SWAP2 POP DUP2 SWAP1 POP SWAP2 SWAP1 POP JUMP JUMPDEST PUSH2 0x6F9 DUP1 PUSH3 0x326 PUSH0 CODECOPY PUSH0 RETURN INVALID PUSH1 0x80 PUSH1 0x40 MSTORE CALLVALUE DUP1 ISZERO PUSH2 0xF JUMPI PUSH0 DUP1 REVERT JUMPDEST POP PUSH1 0x4 CALLDATASIZE LT PUSH2 0x4A JUMPI PUSH0 CALLDATALOAD PUSH1 0xE0 SHR DUP1 PUSH4 0x4A432A46 EQ PUSH2 0x4E JUMPI DUP1 PUSH4 0x524F3889 EQ PUSH2 0x6A JUMPI DUP1 PUSH4 0x8DA5CB5B EQ PUSH2 0x9A JUMPI DUP1 PUSH4 0xC3825F4B EQ PUSH2 0xB8 JUMPI JUMPDEST PUSH0 DUP1 REVERT JUMPDEST PUSH2 0x68 PUSH1 0x4 DUP1 CALLDATASIZE SUB DUP2 ADD SWAP1 PUSH2 0x63 SWAP2 SWAP1 PUSH2 0x440 JUMP JUMPDEST PUSH2 0xE8 JUMP JUMPDEST STOP JUMPDEST PUSH2 0x84 PUSH1 0x4 DUP1 CALLDATASIZE SUB DUP2 ADD SWAP1 PUSH2 0x7F SWAP2 SWAP1 PUSH2 0x49A JUMP JUMPDEST PUSH2 0x1EA JUMP JUMPDEST PUSH1 0x40 MLOAD PUSH2 0x91 SWAP2 SWAP1 PUSH2 0x4F0 JUMP JUMPDEST PUSH1 0x40 MLOAD DUP1 SWAP2 SUB SWAP1 RETURN JUMPDEST PUSH2 0xA2 PUSH2 0x26F JUMP JUMPDEST PUSH1 0x40 MLOAD PUSH2 0xAF SWAP2 SWAP1 PUSH2 0x548 JUMP JUMPDEST PUSH1 0x40 MLOAD DUP1 SWAP2 SUB SWAP1 RETURN JUMPDEST PUSH2 0xD2 PUSH1 0x4 DUP1 CALLDATASIZE SUB DUP2 ADD SWAP1 PUSH2 0xCD SWAP2 SWAP1 PUSH2 0x49A JUMP JUMPDEST PUSH2 0x294 JUMP JUMPDEST PUSH1 0x40 MLOAD PUSH2 0xDF SWAP2 SWAP1 PUSH2 0x4F0 JUMP JUMPDEST PUSH1 0x40 MLOAD DUP1 SWAP2 SUB SWAP1 RETURN JUMPDEST PUSH1 0x1 PUSH0 SWAP1 SLOAD SWAP1 PUSH2 0x100 EXP SWAP1 DIV PUSH20 0xFFFFFFFFFFFFFFFFFFFFFFFFFFFFFFFFFFFFFFFF AND PUSH20 0xFFFFFFFFFFFFFFFFFFFFFFFFFFFFFFFFFFFFFFFF AND CALLER PUSH20 0xFFFFFFFFFFFFFFFFFFFFFFFFFFFFFFFFFFFFFFFF AND EQ PUSH2 0x177 JUMPI PUSH1 0x40 MLOAD PUSH32 0x8C379A000000000000000000000000000000000000000000000000000000000 DUP2 MSTORE PUSH1 0x4 ADD PUSH2 0x16E SWAP1 PUSH2 0x5BB JUMP JUMPDEST PUSH1 0x40 MLOAD DUP1 SWAP2 SUB SWAP1 REVERT JUMPDEST DUP1 PUSH0 DUP4 PUSH1 0x40 MLOAD PUSH2 0x187 SWAP2 SWAP1 PUSH2 0x645 JUMP JUMPDEST SWAP1 DUP2 MSTORE PUSH1 0x20 ADD PUSH1 0x40 MLOAD DUP1 SWAP2 SUB SWAP1 KECCAK256 DUP2 SWAP1 SSTORE POP DUP2 PUSH1 0x40 MLOAD PUSH2 0x1A7 SWAP2 SWAP1 PUSH2 0x645 JUMP JUMPDEST PUSH1 0x40 MLOAD DUP1 SWAP2 SUB SWAP1 KECCAK256 PUSH32 0x159E83F4712BA2552E68BE9D848E49BF6DD35C24F19564FFD523B6549450A2F4 DUP3 PUSH1 0x40 MLOAD PUSH2 0x1DE SWAP2 SWAP1 PUSH2 0x4F0 JUMP JUMPDEST PUSH1 0x40 MLOAD DUP1 SWAP2 SUB SWAP1 LOG2 POP POP JUMP JUMPDEST PUSH0 DUP1 PUSH0 DUP4 PUSH1 0x40 MLOAD PUSH2 0x1FB SWAP2 SWAP1 PUSH2 0x645 JUMP JUMPDEST SWAP1 DUP2 MSTORE PUSH1 0x20 ADD PUSH1 0x40 MLOAD DUP1 SWAP2 SUB SWAP1 KECCAK256 SLOAD GT PUSH2 0x24A JUMPI PUSH1 0x40 MLOAD PUSH32 0x8C379A000000000000000000000000000000000000000000000000000000000 DUP2 MSTORE PUSH1 0x4 ADD PUSH2 0x241 SWAP1 PUSH2 0x6A5 JUMP JUMPDEST PUSH1 0x40 MLOAD DUP1 SWAP2 SUB SWAP1 REVERT JUMPDEST PUSH0 DUP3 PUSH1 0x40 MLOAD PUSH2 0x259 SWAP2 SWAP1 PUSH2 0x645 JUMP JUMPDEST SWAP1 DUP2 MSTORE PUSH1 0x20 ADD PUSH1 0x40 MLOAD DUP1 SWAP2 SUB SWAP1 KECCAK256 SLOAD SWAP1 POP SWAP2 SWAP1 POP JUMP JUMPDEST PUSH1 0x1 PUSH0 SWAP1 SLOAD SWAP1 PUSH2 0x100 EXP SWAP1 DIV PUSH20 0xFFFFFFFFFFFFFFFFFFFFFFFFFFFFFFFFFFFFFFFF AND DUP2 JUMP JUMPDEST PUSH0 DUP2 DUP1 MLOAD PUSH1 0x20 DUP2 ADD DUP3 ADD DUP1 MLOAD DUP5 DUP3 MSTORE PUSH1 0x20 DUP4 ADD PUSH1 0x20 DUP6 ADD KECCAK256 DUP2 DUP4 MSTORE DUP1 SWAP6 POP POP POP POP POP POP PUSH0 SWAP2 POP SWAP1 POP SLOAD DUP2 JUMP JUMPDEST PUSH0 PUSH1 0x40 MLOAD SWAP1 POP SWAP1 JUMP JUMPDEST PUSH0 DUP1 REVERT JUMPDEST PUSH0 DUP1 REVERT JUMPDEST PUSH0 DUP1 REVERT JUMPDEST PUSH0 DUP1 REVERT JUMPDEST PUSH0 PUSH1 0x1F NOT PUSH1 0x1F DUP4 ADD AND SWAP1 POP SWAP2 SWAP1 POP JUMP JUMPDEST PUSH32 0x4E487B7100000000000000000000000000000000000000000000000000000000 PUSH0 MSTORE PUSH1 0x41 PUSH1 0x4 MSTORE PUSH1 0x24 PUSH0 REVERT JUMPDEST PUSH2 0x31F DUP3 PUSH2 0x2D9 JUMP JUMPDEST DUP2 ADD DUP2 DUP2 LT PUSH8 0xFFFFFFFFFFFFFFFF DUP3 GT OR ISZERO PUSH2 0x33E JUMPI PUSH2 0x33D PUSH2 0x2E9 JUMP JUMPDEST JUMPDEST DUP1 PUSH1 0x40 MSTORE POP POP POP JUMP JUMPDEST PUSH0 PUSH2 0x350 PUSH2 0x2C0 JUMP JUMPDEST SWAP1 POP PUSH2 0x35C DUP3 DUP3 PUSH2 0x316 JUMP JUMPDEST SWAP2 SWAP1 POP JUMP JUMPDEST PUSH0 PUSH8 0xFFFFFFFFFFFFFFFF DUP3 GT ISZERO PUSH2 0x37B JUMPI PUSH2 0x37A PUSH2 0x2E9 JUMP JUMPDEST JUMPDEST PUSH2 0x384 DUP3 PUSH2 0x2D9 JUMP JUMPDEST SWAP1 POP PUSH1 0x20 DUP2 ADD SWAP1 POP SWAP2 SWAP1 POP JUMP JUMPDEST DUP3 DUP2 DUP4 CALLDATACOPY PUSH0 DUP4 DUP4 ADD MSTORE POP POP POP JUMP JUMPDEST PUSH0 PUSH2 0x3B1 PUSH2 0x3AC DUP5 PUSH2 0x361 JUMP JUMPDEST PUSH2 0x347 JUMP JUMPDEST SWAP1 POP DUP3 DUP2 MSTORE PUSH1 0x20 DUP2 ADD DUP5 DUP5 DUP5 ADD GT ISZERO PUSH2 0x3CD JUMPI PUSH2 0x3CC PUSH2 0x2D5 JUMP JUMPDEST JUMPDEST PUSH2 0x3D8 DUP5 DUP3 DUP6 PUSH2 0x391 JUMP JUMPDEST POP SWAP4 SWAP3 POP POP POP JUMP JUMPDEST PUSH0 DUP3 PUSH1 0x1F DUP4 ADD SLT PUSH2 0x3F4 JUMPI PUSH2 0x3F3 PUSH2 0x2D1 JUMP JUMPDEST JUMPDEST DUP2 CALLDATALOAD PUSH2 0x404 DUP5 DUP3 PUSH1 0x20 DUP7 ADD PUSH2 0x39F JUMP JUMPDEST SWAP2 POP POP SWAP3 SWAP2 POP POP JUMP JUMPDEST PUSH0 DUP2 SWAP1 POP SWAP2 SWAP1 POP JUMP JUMPDEST PUSH2 0x41F DUP2 PUSH2 0x40D JUMP JUMPDEST DUP2 EQ PUSH2 0x429 JUMPI PUSH0 DUP1 REVERT JUMPDEST POP JUMP JUMPDEST PUSH0 DUP2 CALLDATALOAD SWAP1 POP PUSH2 0x43A DUP2 PUSH2 0x416 JUMP JUMPDEST SWAP3 SWAP2 POP POP JUMP JUMPDEST PUSH0 DUP1 PUSH1 0x40 DUP4 DUP6 SUB SLT ISZERO PUSH2 0x456 JUMPI PUSH2 0x455 PUSH2 0x2C9 JUMP JUMPDEST JUMPDEST PUSH0 DUP4 ADD CALLDATALOAD PUSH8 0xFFFFFFFFFFFFFFFF DUP2 GT ISZERO PUSH2 0x473 JUMPI PUSH2 0x472 PUSH2 0x2CD JUMP JUMPDEST JUMPDEST PUSH2 0x47F DUP6 DUP3 DUP7 ADD PUSH2 0x3E0 JUMP JUMPDEST SWAP3 POP POP PUSH1 0x20 PUSH2 0x490 DUP6 DUP3 DUP7 ADD PUSH2 0x42C JUMP JUMPDEST SWAP2 POP POP SWAP3 POP SWAP3 SWAP1 POP JUMP JUMPDEST PUSH0 PUSH1 0x20 DUP3 DUP5 SUB SLT ISZERO PUSH2 0x4AF JUMPI PUSH2 0x4AE PUSH2 0x2C9 JUMP JUMPDEST JUMPDEST PUSH0 DUP3 ADD CALLDATALOAD PUSH8 0xFFFFFFFFFFFFFFFF DUP2 GT ISZERO PUSH2 0x4CC JUMPI PUSH2 0x4CB PUSH2 0x2CD JUMP JUMPDEST JUMPDEST PUSH2 0x4D8 DUP5 DUP3 DUP6 ADD PUSH2 0x3E0 JUMP JUMPDEST SWAP2 POP POP SWAP3 SWAP2 POP POP JUMP JUMPDEST PUSH2 0x4EA DUP2 PUSH2 0x40D JUMP JUMPDEST DUP3 MSTORE POP POP JUMP JUMPDEST PUSH0 PUSH1 0x20 DUP3 ADD SWAP1 POP PUSH2 0x503 PUSH0 DUP4 ADD DUP5 PUSH2 0x4E1 JUMP JUMPDEST SWAP3 SWAP2 POP POP JUMP JUMPDEST PUSH0 PUSH20 0xFFFFFFFFFFFFFFFFFFFFFFFFFFFFFFFFFFFFFFFF DUP3 AND SWAP1 POP SWAP2 SWAP1 POP JUMP JUMPDEST PUSH0 PUSH2 0x532 DUP3 PUSH2 0x509 JUMP JUMPDEST SWAP1 POP SWAP2 SWAP1 POP JUMP JUMPDEST PUSH2 0x542 DUP2 PUSH2 0x528 JUMP JUMPDEST DUP3 MSTORE POP POP JUMP JUMPDEST PUSH0 PUSH1 0x20 DUP3 ADD SWAP1 POP PUSH2 0x55B PUSH0 DUP4 ADD DUP5 PUSH2 0x539 JUMP JUMPDEST SWAP3 SWAP2 POP POP JUMP JUMPDEST PUSH0 DUP3 DUP3 MSTORE PUSH1 0x20 DUP3 ADD SWAP1 POP SWAP3 SWAP2 POP POP JUMP JUMPDEST PUSH32 0x4E6F74206F776E65720000000000000000000000000000000000000000000000 PUSH0 DUP3 ADD MSTORE POP JUMP JUMPDEST PUSH0 PUSH2 0x5A5 PUSH1 0x9 DUP4 PUSH2 0x561 JUMP JUMPDEST SWAP2 POP PUSH2 0x5B0 DUP3 PUSH2 0x571 JUMP JUMPDEST PUSH1 0x20 DUP3 ADD SWAP1 POP SWAP2 SWAP1 POP JUMP JUMPDEST PUSH0 PUSH1 0x20 DUP3 ADD SWAP1 POP DUP2 DUP2 SUB PUSH0 DUP4 ADD MSTORE PUSH2 0x5D2 DUP2 PUSH2 0x599 JUMP JUMPDEST SWAP1 POP SWAP2 SWAP1 POP JUMP JUMPDEST PUSH0 DUP2 MLOAD SWAP1 POP SWAP2 SWAP1 POP JUMP JUMPDEST PUSH0 DUP2 SWAP1 POP SWAP3 SWAP2 POP POP JUMP JUMPDEST PUSH0 JUMPDEST DUP4 DUP2 LT ISZERO PUSH2 0x60A JUMPI DUP1 DUP3 ADD MLOAD DUP2 DUP5 ADD MSTORE PUSH1 0x20 DUP2 ADD SWAP1 POP PUSH2 0x5EF JUMP JUMPDEST PUSH0 DUP5 DUP5 ADD MSTORE POP POP POP POP JUMP JUMPDEST PUSH0 PUSH2 0x61F DUP3 PUSH2 0x5D9 JUMP JUMPDEST PUSH2 0x629 DUP2 DUP6 PUSH2 0x5E3 JUMP JUMPDEST SWAP4 POP PUSH2 0x639 DUP2 DUP6 PUSH1 0x20 DUP7 ADD PUSH2 0x5ED JUMP JUMPDEST DUP1 DUP5 ADD SWAP2 POP POP SWAP3 SWAP2 POP POP JUMP JUMPDEST PUSH0 PUSH2 0x650 DUP3 DUP5 PUSH2 0x615 JUMP JUMPDEST SWAP2 POP DUP2 SWAP1 POP SWAP3 SWAP2 POP POP JUMP JUMPDEST PUSH32 0x5072696365206E6F7420617661696C61626C6500000000000000000000000000 PUSH0 DUP3 ADD MSTORE POP JUMP JUMPDEST PUSH0 PUSH2 0x68F PUSH1 0x13 DUP4 PUSH2 0x561 JUMP JUMPDEST SWAP2 POP PUSH2 0x69A DUP3 PUSH2 0x65B JUMP JUMPDEST PUSH1 0x20 DUP3 ADD SWAP1 POP SWAP2 SWAP1 POP JUMP JUMPDEST PUSH0 PUSH1 0x20 DUP3 ADD SWAP1 POP DUP2 DUP2 SUB PUSH0 DUP4 ADD MSTORE PUSH2 0x6BC DUP2 PUSH2 0x683 JUMP JUMPDEST SWAP1 POP SWAP2 SWAP1 POP JUMP INVALID LOG2 PUSH5 0x6970667358 0x22 SLT KECCAK256 0xEB PUSH18 0xB899B54A6638CBC76B8A19DF87B5DBAB7CCC PUSH7 0x212C88C9AD7D7C 0xE2 DUP12 PUSH29 0xC664736F6C634300081400330000000000000000000000000000000000 "},"methodIdentifiers":{"getPrice(string)":"524f3889","owner()":"8da5cb5b","prices(string)":"c3825f4b","updatePrice(string,uint256)":"4a432a46"}}}}}