{
  "_format": "hh3-artifact-1",
  "contractName": "Bank",
  "sourceName": "contracts/Bank.sol",
  "abi": [
    {
      "inputs": [
        {
          "internalType": "address",
          "name": "_usd",
          "type": "address"
        }
      ],
      "stateMutability": "nonpayable",
      "type": "constructor"
    },
    {
      "inputs": [
        {
          "internalType": "address",
          "name": "owner",
          "type": "address"
        }
      ],
      "name": "OwnableInvalidOwner",
      "type": "error"
    },
    {
      "inputs": [
        {
          "internalType": "address",
          "name": "account",
          "type": "address"
        }
      ],
      "name": "OwnableUnauthorizedAccount",
      "type": "error"
    },
    {
      "inputs": [],
      "name": "ReentrancyGuardReentrantCall",
      "type": "error"
    },
    {
      "anonymous": false,
      "inputs": [
        {
          "indexed": true,
          "internalType": "address",
          "name": "user",
          "type": "address"
        },
        {
          "indexed": false,
          "internalType": "uint256",
          "name": "monAmount",
          "type": "uint256"
        },
        {
          "indexed": false,
          "internalType": "uint256",
          "name": "usdAmount",
          "type": "uint256"
        }
      ],
      "name": "Deposit",
      "type": "event"
    },
    {
      "anonymous": false,
      "inputs": [
        {
          "indexed": true,
          "internalType": "address",
          "name": "previousOwner",
          "type": "address"
        },
        {
          "indexed": true,
          "internalType": "address",
          "name": "newOwner",
          "type": "address"
        }
      ],
      "name": "OwnershipTransferred",
      "type": "event"
    },
    {
      "anonymous": false,
      "inputs": [
        {
          "indexed": true,
          "internalType": "address",
          "name": "user",
          "type": "address"
        },
        {
          "indexed": false,
          "internalType": "uint256",
          "name": "monAmount",
          "type": "uint256"
        },
        {
          "indexed": false,
          "internalType": "uint256",
          "name": "usdAmount",
          "type": "uint256"
        }
      ],
      "name": "Withdraw",
      "type": "event"
    },
    {
      "inputs": [],
      "name": "RATE",
      "outputs": [
        {
          "internalType": "uint256",
          "name": "",
          "type": "uint256"
        }
      ],
      "stateMutability": "view",
      "type": "function"
    },
    {
      "inputs": [],
      "name": "deposit",
      "outputs": [],
      "stateMutability": "payable",
      "type": "function"
    },
    {
      "inputs": [],
      "name": "owner",
      "outputs": [
        {
          "internalType": "address",
          "name": "",
          "type": "address"
        }
      ],
      "stateMutability": "view",
      "type": "function"
    },
    {
      "inputs": [],
      "name": "renounceOwnership",
      "outputs": [],
      "stateMutability": "nonpayable",
      "type": "function"
    },
    {
      "inputs": [
        {
          "internalType": "address",
          "name": "newOwner",
          "type": "address"
        }
      ],
      "name": "transferOwnership",
      "outputs": [],
      "stateMutability": "nonpayable",
      "type": "function"
    },
    {
      "inputs": [],
      "name": "usd",
      "outputs": [
        {
          "internalType": "contract IMockUSD",
          "name": "",
          "type": "address"
        }
      ],
      "stateMutability": "view",
      "type": "function"
    },
    {
      "inputs": [
        {
          "internalType": "uint256",
          "name": "usdAmount",
          "type": "uint256"
        }
      ],
      "name": "withdraw",
      "outputs": [],
      "stateMutability": "nonpayable",
      "type": "function"
    },
    {
      "stateMutability": "payable",
      "type": "receive"
    }
  ],
  "bytecode": "0x608060405234801562000010575f80fd5b5060405162000ffd38038062000ffd833981810160405281019062000036919062000232565b3360015f819055505f73ffffffffffffffffffffffffffffffffffffffff168173ffffffffffffffffffffffffffffffffffffffff1603620000b1575f6040517f1e4fbdf7000000000000000000000000000000000000000000000000000000008152600401620000a8919062000273565b60405180910390fd5b620000c2816200010a60201b60201c565b508060025f6101000a81548173ffffffffffffffffffffffffffffffffffffffff021916908373ffffffffffffffffffffffffffffffffffffffff160217905550506200028e565b5f60015f9054906101000a900473ffffffffffffffffffffffffffffffffffffffff1690508160015f6101000a81548173ffffffffffffffffffffffffffffffffffffffff021916908373ffffffffffffffffffffffffffffffffffffffff1602179055508173ffffffffffffffffffffffffffffffffffffffff168173ffffffffffffffffffffffffffffffffffffffff167f8be0079c531659141344cd1fd0a4f28419497f9722a3daafe3b4186f6b6457e060405160405180910390a35050565b5f80fd5b5f73ffffffffffffffffffffffffffffffffffffffff82169050919050565b5f620001fc82620001d1565b9050919050565b6200020e81620001f0565b811462000219575f80fd5b50565b5f815190506200022c8162000203565b92915050565b5f602082840312156200024a5762000249620001cd565b5b5f62000259848285016200021c565b91505092915050565b6200026d81620001f0565b82525050565b5f602082019050620002885f83018462000262565b92915050565b610d61806200029c5f395ff3fe608060405260043610610073575f3560e01c80638da5cb5b1161004d5780638da5cb5b146100e6578063d0e30db014610110578063d63a6ccd1461011a578063f2fde38b146101445761007a565b80632e1a7d4d1461007e578063664e9704146100a6578063715018a6146100d05761007a565b3661007a57005b5f80fd5b348015610089575f80fd5b506100a4600480360381019061009f919061086e565b61016c565b005b3480156100b1575f80fd5b506100ba610472565b6040516100c791906108a8565b60405180910390f35b3480156100db575f80fd5b506100e4610477565b005b3480156100f1575f80fd5b506100fa61048a565b6040516101079190610900565b60405180910390f35b6101186104b2565b005b348015610125575f80fd5b5061012e6105f0565b60405161013b9190610974565b60405180910390f35b34801561014f575f80fd5b5061016a600480360381019061016591906109b7565b610615565b005b610174610699565b5f81116101b6576040517f08c379a00000000000000000000000000000000000000000000000000000000081526004016101ad90610a3c565b60405180910390fd5b8060025f9054906101000a900473ffffffffffffffffffffffffffffffffffffffff1673ffffffffffffffffffffffffffffffffffffffff166370a08231336040518263ffffffff1660e01b81526004016102119190610900565b602060405180830381865afa15801561022c573d5f803e3d5ffd5b505050506040513d601f19601f820116820180604052508101906102509190610a6e565b1015610291576040517f08c379a000000000000000000000000000000000000000000000000000000000815260040161028890610ae3565b60405180910390fd5b5f60648261029f9190610b5b565b9050804710156102e4576040517f08c379a00000000000000000000000000000000000000000000000000000000081526004016102db90610bd5565b60405180910390fd5b60025f9054906101000a900473ffffffffffffffffffffffffffffffffffffffff1673ffffffffffffffffffffffffffffffffffffffff166379cc679033846040518363ffffffff1660e01b8152600401610340929190610bf3565b5f604051808303815f87803b158015610357575f80fd5b505af1158015610369573d5f803e3d5ffd5b505050505f3373ffffffffffffffffffffffffffffffffffffffff168260405161039290610c47565b5f6040518083038185875af1925050503d805f81146103cc576040519150601f19603f3d011682016040523d82523d5f602084013e6103d1565b606091505b5050905080610415576040517f08c379a000000000000000000000000000000000000000000000000000000000815260040161040c90610ca5565b60405180910390fd5b3373ffffffffffffffffffffffffffffffffffffffff167ff279e6a1f5e320cca91135676d9cb6e44ca8a08c0b88342bcdb1144f6511b568838560405161045d929190610cc3565b60405180910390a2505061046f6106dd565b50565b606481565b61047f6106e6565b6104885f61076d565b565b5f60015f9054906101000a900473ffffffffffffffffffffffffffffffffffffffff16905090565b6104ba610699565b5f34116104fc576040517f08c379a00000000000000000000000000000000000000000000000000000000081526004016104f390610a3c565b60405180910390fd5b5f60643461050a9190610cea565b905060025f9054906101000a900473ffffffffffffffffffffffffffffffffffffffff1673ffffffffffffffffffffffffffffffffffffffff166340c10f1933836040518363ffffffff1660e01b8152600401610568929190610bf3565b5f604051808303815f87803b15801561057f575f80fd5b505af1158015610591573d5f803e3d5ffd5b505050503373ffffffffffffffffffffffffffffffffffffffff167f90890809c654f11d6e72a28fa60149770a0d11ec6c92319d6ceb2bb0a4ea1a1534836040516105dd929190610cc3565b60405180910390a2506105ee6106dd565b565b60025f9054906101000a900473ffffffffffffffffffffffffffffffffffffffff1681565b61061d6106e6565b5f73ffffffffffffffffffffffffffffffffffffffff168173ffffffffffffffffffffffffffffffffffffffff160361068d575f6040517f1e4fbdf70000000000000000000000000000000000000000000000000000000081526004016106849190610900565b60405180910390fd5b6106968161076d565b50565b60025f54036106d4576040517f3ee5aeb500000000000000000000000000000000000000000000000000000000815260040160405180910390fd5b60025f81905550565b60015f81905550565b6106ee610830565b73ffffffffffffffffffffffffffffffffffffffff1661070c61048a565b73ffffffffffffffffffffffffffffffffffffffff161461076b5761072f610830565b6040517f118cdaa70000000000000000000000000000000000000000000000000000000081526004016107629190610900565b60405180910390fd5b565b5f60015f9054906101000a900473ffffffffffffffffffffffffffffffffffffffff1690508160015f6101000a81548173ffffffffffffffffffffffffffffffffffffffff021916908373ffffffffffffffffffffffffffffffffffffffff1602179055508173ffffffffffffffffffffffffffffffffffffffff168173ffffffffffffffffffffffffffffffffffffffff167f8be0079c531659141344cd1fd0a4f28419497f9722a3daafe3b4186f6b6457e060405160405180910390a35050565b5f33905090565b5f80fd5b5f819050919050565b61084d8161083b565b8114610857575f80fd5b50565b5f8135905061086881610844565b92915050565b5f6020828403121561088357610882610837565b5b5f6108908482850161085a565b91505092915050565b6108a28161083b565b82525050565b5f6020820190506108bb5f830184610899565b92915050565b5f73ffffffffffffffffffffffffffffffffffffffff82169050919050565b5f6108ea826108c1565b9050919050565b6108fa816108e0565b82525050565b5f6020820190506109135f8301846108f1565b92915050565b5f819050919050565b5f61093c610937610932846108c1565b610919565b6108c1565b9050919050565b5f61094d82610922565b9050919050565b5f61095e82610943565b9050919050565b61096e81610954565b82525050565b5f6020820190506109875f830184610965565b92915050565b610996816108e0565b81146109a0575f80fd5b50565b5f813590506109b18161098d565b92915050565b5f602082840312156109cc576109cb610837565b5b5f6109d9848285016109a3565b91505092915050565b5f82825260208201905092915050565b7f416d6f756e74206d757374206265203e203000000000000000000000000000005f82015250565b5f610a266012836109e2565b9150610a31826109f2565b602082019050919050565b5f6020820190508181035f830152610a5381610a1a565b9050919050565b5f81519050610a6881610844565b92915050565b5f60208284031215610a8357610a82610837565b5b5f610a9084828501610a5a565b91505092915050565b7f496e73756666696369656e742062616c616e63650000000000000000000000005f82015250565b5f610acd6014836109e2565b9150610ad882610a99565b602082019050919050565b5f6020820190508181035f830152610afa81610ac1565b9050919050565b7f4e487b71000000000000000000000000000000000000000000000000000000005f52601260045260245ffd5b7f4e487b71000000000000000000000000000000000000000000000000000000005f52601160045260245ffd5b5f610b658261083b565b9150610b708361083b565b925082610b8057610b7f610b01565b5b828204905092915050565b7f42616e6b20696e73756666696369656e74206c697175696469747900000000005f82015250565b5f610bbf601b836109e2565b9150610bca82610b8b565b602082019050919050565b5f6020820190508181035f830152610bec81610bb3565b9050919050565b5f604082019050610c065f8301856108f1565b610c136020830184610899565b9392505050565b5f81905092915050565b50565b5f610c325f83610c1a565b9150610c3d82610c24565b5f82019050919050565b5f610c5182610c27565b9150819050919050565b7f4661696c656420746f2073656e64204d4f4e00000000000000000000000000005f82015250565b5f610c8f6012836109e2565b9150610c9a82610c5b565b602082019050919050565b5f6020820190508181035f830152610cbc81610c83565b9050919050565b5f604082019050610cd65f830185610899565b610ce36020830184610899565b9392505050565b5f610cf48261083b565b9150610cff8361083b565b9250828202610d0d8161083b565b91508282048414831517610d2457610d23610b2e565b5b509291505056fea2646970667358221220c41de365d077a042a91dd4a54b93f24c5484d1afefa52883314d3031dcab00e664736f6c63430008140033",
  "linkReferences": {},
  "deployedLinkReferences": {},
  "immutableReferences": {},
  "inputSourceName": "project/contracts/Bank.sol",
  "buildInfoId": "solc-0_8_20-d603a20529f29d250c82a516306bda7cdaeb56ec"
}